:100000000C9432000C947D020C941F030C94440059
:100010000C9444000C9444000C9444000C94440050
:100020000C9444000C9444000C9444000C9436034B
:100030000C9444000C9444000C9444000C94440030
:100040000C9444000C9444000C9444000C94440020
:100050000C9444007700B600F90040018B01D201F6
:100060001502540211241FBECFE5D8E0DEBFCDBF7C
:1000700020E0A0E6B0E001C01D92A337B207E1F78F
:100080000E9499030C94DF070C94000064E482E062
:100090000E944D0341E064E482E00E94400464E475
:1000A00083E00E944D0341E064E483E00E94400449
:1000B00061E484E00E94590361E484E00E948203C9
:1000C0000E94E2040E94E6040E94F3040E940005DC
:1000D00080E00895E0916300F09164003197E8308A
:1000E000F10508F004C2E65DFF4F0C94D90761E406
:1000F00080E00E9470030E94B80560916F007091CB
:10010000700080917100909172000E9442052091D0
:100110006000309161008091650090916600281721
:100120003907A9F7109261001092600061E484E041
:100130000E9482030E94B80560916F007091700068
:1001400080917100909172000E94420520916000A0
:100150003091610080916500909166002817390701
:10016000A9F71092610010926000C1C161E480E0C3
:100170000E94700361E481E00E9470030E94B80550
:1001800060916F0070917000809171009091720089
:100190000E944205209160003091610080916500CD
:1001A0009091660028173907A9F710926100109204
:1001B000600061E484E00E9482030E94B8056091BF
:1001C0006700709168008091690090916A000E94B8
:1001D000420520916000309161008091650090910E
:1001E000660028173907A9F7109261001092600085
:1001F0007EC161E480E00E94700361E481E00E94BE
:10020000700361E482E00E9470030E94B80560916F
:100210006F007091700080917100909172000E9447
:1002200042052091600030916100809165009091BD
:10023000660028173907A9F7109261001092600034
:1002400061E484E00E9482030E94B8056091670027
:10025000709168008091690090916A000E94420547
:10026000209160003091610080916500909166005E
:1002700028173907A9F7109261001092600037C162
:1002800061E480E00E94700361E481E00E947003F9
:1002900061E482E00E94700361E483E00E947003E5
:1002A0000E94B80560916F0070917000809171009C
:1002B000909172000E94420520916000309161008F
:1002C000809165009091660028173907A9F7109270
:1002D00061001092600061E484E00E9482030E9449
:1002E000B8056091670070916800809169009091F5
:1002F0006A000E9442052091600030916100809167
:1003000065009091660028173907A9F710926100DF
:1003100010926000ECC061E481E00E94700361E42F
:1003200082E00E94700361E483E00E9470030E94F7
:10033000B80560916F00709170008091710090918C
:1003400072000E944205209160003091610080910E
:1003500065009091660028173907A9F7109261008F
:100360001092600061E484E00E9482030E94B8055C
:1003700060916700709168008091690090916A00B7
:100380000E944205209160003091610080916500DB
:100390009091660028173907A9F710926100109212
:1003A0006000A5C061E482E00E94700361E483E024
:1003B0000E9470030E94B80560916F0070917000F8
:1003C00080917100909172000E944205209160001E
:1003D000309161008091650090916600281739077F
:1003E000A9F7109261001092600061E484E00E941D
:1003F00082030E94B8056091670070916800809147
:10040000690090916A000E9442052091600030913D
:100410006100809165009091660028173907A9F75F
:10042000109261001092600062C061E483E00E945B
:1004300070030E94B80560916F0070917000809108
:100440007100909172000E944205209160003091ED
:100450006100809165009091660028173907A9F71F
:10046000109261001092600061E484E00E948203B7
:100470000E94B805609167007091680080916900E2
:1004800090916A000E9442052091600030916100C5
:10049000809165009091660028173907A9F710929E
:1004A00061001092600023C061E484E00E94820336
:1004B0000E94B805609167007091680080916900A2
:1004C00090916A000E944205209160003091610085
:1004D000809165009091660028173907A9F710925E
:1004E000610010926000109264001092630080E03E
:1004F00008950E946A0080E008951F920F920FB63F
:100500000F9211248F939F93AF93BF9380916200BA
:100510008F5F80936200833009F43FC028F48130FC
:1005200051F0823009F180C0843009F44FC0853029
:1005300009F461C079C080E090E0A8ECB2E4809357
:100540006F0090937000A0937100B093720080E0F0
:1005500090E0A1E6B4E48093670090936800A093D4
:100560006900B0936A0062C080E090E0A8E4B3E460
:1005700080936F0090937000A0937100B09372000D
:1005800080E090E0A8E4B4E4809367009093680072
:10059000A0936900B0936A0049C080E090E0A6E9AA
:1005A000B3E480936F0090937000A0937100B093B8
:1005B000720080E090E0AFE2B4E480936700909333
:1005C0006800A0936900B0936A0030C080E090E0BA
:1005D000AAEFB3E480936F0090937000A093710032
:1005E000B09372008093670090936800A0936900B5
:1005F000B0936A001BC080E090E0A8E4B4E480936C
:100600006F0090937000A0937100B093720080E02F
:1006100090E0A8E4B3E48093670090936800A0930F
:100620006900B0936A0002C010926200BF91AF915E
:100630009F918F910F900FBE0F901F9018951F9252
:100640000F920FB60F9211248F939F9380916300A6
:1006500090916400019690936400809363009F9151
:100660008F910F900FBE0F901F9018951F920F92B1
:100670000FB60F9211248F939F93809160009091F9
:100680006100019690936100809360009F918F912B
:100690000F900FBE0F901F90189540E00E949E0390
:1006A000811181E0089541E00E949E03811181E063
:1006B00008951F93CF93DF93D82F162FC0E007C064
:1006C000612F8C2F0E945303813029F0CF5FCD170B
:1006D000B8F380E001C081E0DF91CF911F910895D0
:1006E00041E00E944004843011F480E0089581E0EC
:1006F000089540E00E944004843011F480E00895A1
:1007000081E008951F93CF93DF93D82F162FC0E079
:1007100007C0612F8C2F0E947903813029F0CF5FB1
:10072000CD17B8F380E001C081E0DF91CF911F9138
:1007300008950E9446000E947902FDCF883008F09B
:1007400093C0623469F118F4613441F08FC06334AE
:1007500009F448C0643409F466C088C041110FC070
:100760004AB321E030E0B90102C0660F771F8A95D5
:10077000E2F7CB01809584238ABB80E00895413065
:1007800009F076C04AB321E030E0B90102C0660F3B
:10079000771F8A95E2F7CB01842B8ABB80E008950E
:1007A00041110FC047B321E030E0B90102C0660F2C
:1007B000771F8A95E2F7CB018095842387BB80E081
:1007C0000895413009F056C047B321E030E0B90147
:1007D00002C0660F771F8A95E2F7CB01842B87BB97
:1007E00080E0089541110FC044B321E030E0B90129
:1007F00002C0660F771F8A95E2F7CB0180958423AC
:1008000084BB80E008954130B9F544B321E030E085
:10081000B90102C0660F771F8A95E2F7CB01842BDE
:1008200084BB80E0089541110FC041B321E030E066
:10083000B90102C0660F771F8A95E2F7CB01809558
:10084000842381BB80E008954130C1F441B321E0AD
:1008500030E0B90102C0660F771F8A95E2F7CB013D
:10086000842B81BB80E0089583E0089582E00895A1
:1008700081E0089581E0089581E0089581E0089580
:10088000883008F093C0623469F118F4613441F0A3
:100890008FC0633409F448C0643409F466C088C06A
:1008A00041110FC04BB321E030E0B90102C0660F27
:1008B000771F8A95E2F7CB01809584238BBB84E078
:1008C0000895413009F076C04BB321E030E0B90122
:1008D00002C0660F771F8A95E2F7CB01842B8BBB92
:1008E00084E0089541110FC048B321E030E0B90120
:1008F00002C0660F771F8A95E2F7CB0180958423AB
:1009000088BB84E00895413009F056C048B321E027
:1009100030E0B90102C0660F771F8A95E2F7CB017C
:10092000842B88BB84E0089541110FC045B321E0BA
:1009300030E0B90102C0660F771F8A95E2F7CB015C
:100940008095842385BB84E008954130B9F545B393
:1009500021E030E0B90102C0660F771F8A95E2F707
:10096000CB01842B85BB84E0089541110FC042B3B5
:1009700021E030E0B90102C0660F771F8A95E2F7E7
:10098000CB018095842382BB84E008954130C1F47B
:1009900042B321E030E0B90102C0660F771F8A95AB
:1009A000E2F7CB01842B82BB84E0089583E00895B5
:1009B00082E0089585E0089585E0089585E0089532
:1009C00085E008958FB780688FBF089580B78460F1
:1009D00080BF8BB780648BBF85B78E7F85BF85B79F
:1009E000826085BF089580B7846080BF8BB78068C0
:1009F0008BBF85B78B7F85BF85B7886085BF08951E
:100A00008FB780688FBF83B7877B83BF83B78068CA
:100A100083BF89B7816089BF089580349105E9F06B
:100A200030F48130910559F0089781F008958115CF
:100A300021E09207C9F081159440E9F0089583B749
:100A4000897F83BF83B7816083BF089583B78A7F1F
:100A500083BF83B7826083BF089583B78B7F83BFD3
:100A600083B7836083BF089583B78C7F83BF83B7C9
:100A7000846083BF089583B78D7F83BF83B785600C
:100A800083BF08958F929F92AF92BF92CF92DF92D1
:100A9000EF92FF9213BE20E030E04AE754E40E9458
:100AA00045066B017C012DEB37E346E05DE30E94D8
:100AB0004006882394F4A70196016DEB77E386E066
:100AC0009DE30E94BC052DEB37E346E059E30E940D
:100AD00045060E94B70662BF3EC02DEB37E346E0F5
:100AE0005DE3C701B6010E944006811102C012BE3B
:100AF00032C02DEB37E346E05DE3C701B6010E944B
:100B000045060E9429060E94B7064B015C017093BE
:100B10006600609365002DEB37E346E059E3C701BB
:100B2000B6010E9445066B017C01B40180E090E0B3
:100B30000E94E6069B01AC01C701B6010E94450672
:100B40009B01AC0160E070E08FE793E40E94BC057C
:100B50000E94B70662BF80E094E00E940D05FF90FE
:100B6000EF90DF90CF90BF90AF909F908F900895BF
:100B700083B7887F83BF08955058BB27AA270E9458
:100B8000D4050C9487070E94790738F00E948007EB
:100B900020F039F49F3F19F426F40C9476070EF4F4
:100BA000E095E7FB0C944707E92F0E94980758F35C
:100BB000BA17620773078407950720F079F4A6F542
:100BC0000C94D2070EF4E0950B2EBA2FA02D0B013A
:100BD000B90190010C01CA01A0011124FF27591B82
:100BE00099F0593F50F4503E68F11A16F040A22F88
:100BF000232F342F4427585FF3CF469537952795F9
:100C0000A795F0405395C9F77EF41F16BA0B620BF7
:100C1000730B840BBAF09150A1F0FF0FBB1F661F3E
:100C2000771F881FC2F70EC0BA0F621F731F841F81
:100C300048F4879577956795B795F7959E3F08F0A7
:100C4000B0CF9395880F08F09927EE0F9795879569
:100C500008950E94BA0790F09F3748F4911116F456
:100C60000C94D30760E070E080E89FE3089526F0DD
:100C70001B16611D711D811D0C944D070C94680796
:100C80000E94230708F481E008950E9459060C94FD
:100C900087070E94800758F00E94790740F029F4E6
:100CA0005F3F29F00C94470751110C94D3070C9423
:100CB00076070E94980768F39923B1F3552391F3BF
:100CC000951B550BBB27AA2762177307840738F0BB
:100CD0009F5F5F4F220F331F441FAA1FA9F335D018
:100CE0000E2E3AF0E0E832D091505040E695001CCC
:100CF000CAF72BD0FE2F29D0660F771F881FBB1F86
:100D0000261737074807AB07B0E809F0BB0B802D63
:100D1000BF01FF2793585F4F3AF09E3F510578F08F
:100D20000C9447070C94D3075F3FE4F3983ED4F349
:100D3000869577956795B795F7959F5FC9F7880F63
:100D4000911D9695879597F90895E1E0660F771FB5
:100D5000881FBB1F621773078407BA0720F0621B46
:100D6000730B840BBA0BEE1F88F7E09508950E9471
:100D7000A00788F09F5798F0B92F9927B751B0F086
:100D8000E1F0660F771F881F991F1AF0BA95C9F70F
:100D900014C0B13091F00E94D207B1E008950C94D4
:100DA000D207672F782F8827B85F39F0B93FCCF387
:100DB000869577956795B395D9F73EF4909580958C
:100DC000709561957F4F8F4F9F4F0895E89409C0AC
:100DD00097FB3EF490958095709561957F4F8F4F6E
:100DE0009F4F9923A9F0F92F96E9BB279395F69584
:100DF000879577956795B795F111F8CFFAF4BB0F02
:100E000011F460FF1BC06F5F7F4F8F4F9F4F16C065
:100E1000882311F096E911C0772321F09EE8872FEF
:100E2000762F05C0662371F096E8862F70E060E0AB
:100E30002AF09A95660F771F881FDAF7880F969524
:100E4000879597F90895990F0008550FAA0BE0E8C8
:100E5000FEEF16161706E807F907C0F0121613067C
:100E6000E407F50798F0621B730B840B950B39F4BC
:100E70000A2661F0232B242B252B21F408950A2622
:100E800009F4A140A6958FEF811D811D089597F962
:100E90009F6780E870E060E00895882371F477230D
:100EA00021F09850872B762F07C0662311F49927DD
:100EB0000DC09051862B70E060E02AF09A95660F85
:100EC000771F881FDAF7880F9695879597F9089509
:100ED0009F3F31F0915020F4879577956795B795AE
:100EE000880F911D9695879597F908959FEF80EC4F
:100EF000089500240A941616170618060906089580
:100F000000240A9412161306140605060895092EE5
:100F10000394000C11F4882352F0BB0F40F4BF2B54
:100F200011F460FF04C06F5F7F4F8F4F9F4F089594
:100F300057FD9058440F551F59F05F3F71F047958A
:100F4000880F97FB991F61F09F3F79F0879508956F
:100F5000121613061406551FF2CF4695F1DF08C08E
:100F6000161617061806991FF1CF869571056105AB
:100F7000089408950E94A007A0F0BEE7B91788F46E
:100F8000BB279F3860F41616B11D672F782F88276E
:100F9000985FF7CF869577956795B11D93959639AC
:100FA000C8F30895E894BB2766277727CB0197F904
:100FB0000895EE0FFF1F0590F491E02D0994F89429
:020FC000FFCF61
:00000001FF
