S01700004C45442073657175656E63652056332E7372656316
S11300000C942A000C948A020C9426030C943C0051
S11300100C943C000C943C000C943C000C943C006C
S11300200C943C000C943C000C943C000C943D0358
S11300300C943C000C943C000C943C000C943C004C
S11300400C943C000C943C000C943C000C943C003C
S11300500C943C0011241FBECFE5D8E0DEBFCDBF19
S113006020E0A0E6B0E001C01D92A337B207E1F79B
S11300700E94BC030C9420080C94000064E482E009
S11300800E94540341E064E482E00E945E0464E45C
S113009083E00E94540341E064E483E00E945E0430
S11300A061E484E00E946A0361E484E00E949E03A8
S11300B00E9409050E940D050E941A050E94270549
S11300C080E00895809163009091640081309105EF
S11300D009F03FC061E480E00E9488030E94F905B2
S11300E060916F0070917000809171009091720026
S11300F00E94830520916000309161008091650029
S11301009091660028173907A9F7109261001092A0
S1130110600061E484E00E949E030E94F9056091FE
S11301206F007091700080917100909172000E9434
S11301308305209160003091610080916500909169
S1130140660028173907A9F7109261001092600021
S1130150DBC18230910509F043C061E480E00E9474
S1130160880361E481E00E9488030E94F90560919C
S11301706F007091700080917100909172000E94E4
S11301808305209160003091610080916500909119
S1130190660028173907A9F71092610010926000D1
S11301A061E484E00E949E030E94F9056091670067
S11301B0709168008091690090916A000E948305A3
S11301C020916000309161008091650090916600FB
S11301D028173907A9F7109261001092600094C1A2
S11301E08330910509F047C061E480E00E948803F0
S11301F061E481E00E94880361E482E00E94880354
S11302000E94F90560916F007091700080917100F7
S1130210909172000E9483052091600030916100EA
S1130220809165009091660028173907A9F710920C
S113023061001092600061E484E00E949E030E94C9
S1130240F905609167007091680080916900909150
S11302506A000E94830520916000309161008091C2
S113026065009091660028173907A9F7109261007C
S11302701092600049C18430910509F04BC061E4DB
S113028080E00E94880361E481E00E94880361E4C5
S113029082E00E94880361E483E00E9488030E9454
S11302A0F90560916F0070917000809171009091D8
S11302B072000E948305209160003091610080915A
S11302C065009091660028173907A9F7109261001C
S11302D01092600061E484E00E949E030E94F9058C
S11302E060916700709168008091690090916A0044
S11302F00E94830520916000309161008091650027
S11303009091660028173907A9F71092610010929E
S11303106000FAC08530910509F047C061E481E0CE
S11303200E94880361E482E00E94880361E483E020
S11303300E9488030E94F90560916F00709170001B
S113034080917100909172000E9483052091600059
S113035030916100809165009091660028173907FB
S1130360A9F7109261001092600061E484E00E9499
S11303709E030E94F9056091670070916800809166
S1130380690090916A000E94830520916000309179
S11303906100809165009091660028173907A9F7DC
S11303A01092610010926000AFC08630910509F090
S11303B043C061E482E00E94880361E483E00E9418
S11303C088030E94F90560916F007091700080911C
S11303D07100909172000E94830520916000309119
S11303E06100809165009091660028173907A9F78C
S11303F0109261001092600061E484E00E949E0308
S11304000E94F9056091670070916800809169000D
S113041090916A000E9483052091600030916100F0
S1130420809165009091660028173907A9F710920A
S113043061001092600068C08730910509F03FC0E8
S113044061E483E00E9488030E94F90560916F00D3
S11304507091700080917100909172000E948305E8
S11304602091600030916100809165009091660058
S113047028173907A9F7109261001092600061E40F
S113048084E00E949E030E94F905609167007091C8
S113049068008091690090916A000E948305209110
S11304A0600030916100809165009091660028178A
S11304B03907A9F7109261001092600025C00897CF
S11304C019F561E484E00E949E030E94F90560919D
S11304D06700709168008091690090916A000E94A1
S11304E083052091600030916100809165009091B6
S11304F0660028173907A9F710926100109260006E
S1130500109264001092630080E008950E946200DB
S113051080E008951F920F920FB60F9211248F93CB
S11305209F93AF93BF93809162008F5F809362002B
S11305308130C9F480E090E0A8ECB2E480936F00CD
S113054090937000A0937100B093720080E090E0EB
S1130550A1E6B4E48093670090936800A0936900D7
S1130560B0936A006AC08230C9F480E090E0A8E4E5
S1130570B3E480936F0090937000A0937100B093E4
S1130580720080E090E0A8E4B4E480936700909364
S11305906800A0936900B0936A004FC08330C9F427
S11305A080E090E0A6E9B3E480936F00909370003C
S11305B0A0937100B093720080E090E0AFE2B4E4E5
S11305C08093670090936800A0936900B0936A00D9
S11305D034C08430A9F480E090E0AAEFB3E48093BF
S11305E06F0090937000A0937100B0937200809399
S11305F0670090936800A0936900B0936A001DC0DF
S11306008530C9F480E090E0A8E4B4E480936F00FE
S113061090937000A0937100B093720080E090E01A
S1130620A8E4B3E48093670090936800A093690002
S1130630B0936A0002C010926200BF91AF919F9183
S11306408F910F900FBE0F901F9018951F920F92CD
S11306500FB60F9211248F939F9380916300909112
S11306606400019690936400809363009F918F913E
S11306700F900FBE0F901F9018951F920F920FB6F8
S11306800F9211248F939F93809160009091610049
S1130690019690936100809360009F918F910F90D9
S11306A00FBE0F901F90189540E00E94C103811166
S11306B003C080E090E0089581E090E0089541E077
S11306C00E94C103882319F081E090E0089580E03E
S11306D090E00895EF92FF921F93CF93DF93D82F6A
S11306E0162FE12CF12CC0E00AC0612F8C2F0E9440
S11306F05F03813019F4EE24E394F12CCF5FCD171E
S1130700A0F3C701DF91CF911F91FF90EF9008955F
S113071041E00E945E04843019F480E090E0089582
S113072081E090E0089540E00E945E04843019F472
S113073080E090E0089581E090E00895EF92FF92C8
S11307401F93CF93DF93D82F162FE12CF12CC0E009
S11307500AC0612F8C2F0E949303813019F4EE2478
S1130760E394F12CCF5FCD17A0F3C701DF91CF91B4
S11307701F91FF90EF9008950E943E000E94860210
S1130780FDCF282F883018F480E090E002C083E089
S113079090E0613401F541110EC06AB341E050E0CC
S11307A0FA0102C0EE0FFF1F2A95E2F79F01209580
S11307B026232ABB0895413009F071C06AB341E091
S11307C050E0FA0102C0EE0FFF1F2A95E2F79F01E5
S11307D0262B2ABB0895623401F541110EC067B37C
S11307E041E050E0FA0102C0EE0FFF1F2A95E2F744
S11307F09F012095262327BB0895413009F052C05C
S113080067B341E050E0FA0102C0EE0FFF1F2A95E2
S1130810E2F79F01262B27BB08956334F9F44111B5
S11308200EC064B341E050E0FA0102C0EE0FFF1FB6
S11308302A95E2F79F012095262324BB0895413091
S1130840A1F564B341E050E0FA0102C0EE0FFF1FCE
S11308502A95E2F79F01262B24BB0895643441F5C1
S113086041110EC061B341E050E0FA0102C0EE0F45
S1130870FF1F2A95E2F79F012095262321BB0895A7
S11308804130C9F461B341E050E0FA0102C0EE0F17
S1130890FF1F2A95E2F79F01262B21BB089581E0D3
S11308A090E0089581E090E0089581E090E008955B
S11308B082E090E0089581E090E00895883008F0A7
S11308C096C0613421F5411110C04BB321E030E0F2
S11308D0B90102C0660F771F8A95E2F7CB018095B4
S11308E084238BBB84E090E00895413009F082C0FA
S11308F04BB321E030E0B90102C0660F771F8A953F
S1130900E2F7CB01842B8BBB84E090E00895623442
S113091021F5411110C048B321E030E0B90102C013
S1130920660F771F8A95E2F7CB018095842388BBF5
S113093084E090E00895413009F05FC048B321E0BD
S113094030E0B90102C0660F771F8A95E2F7CB0148
S1130950842B88BB84E090E00895633419F5411139
S113096010C045B321E030E0B90102C0660F771F23
S11309708A95E2F7CB018095842385BB84E090E0DF
S113098008954130E9F545B321E030E0B90102C0F2
S1130990660F771F8A95E2F7CB01842B85BB84E031
S11309A090E00895643479F5411110C042B321E018
S11309B030E0B90102C0660F771F8A95E2F7CB01D8
S11309C08095842382BB84E090E008954130F1F463
S11309D042B321E030E0B90102C0660F771F8A9567
S11309E0E2F7CB01842B82BB84E090E0089583E09E
S11309F090E0089585E090E0089585E090E0089502
S1130A0085E090E0089582E090E0089585E090E02C
S1130A1008958FB780688FBF089580B7846080BFC2
S1130A208BB780648BBF85B78E7F85BF85B78260A7
S1130A3085BF089580B7846080BF8BB780688BBF03
S1130A4085B78B7F85BF85B7886085BF08958FB7CD
S1130A5080688FBF83B78F7B83BF83B7877F83BF54
S1130A6083B7806883BF89B7816089BF0895813067
S1130A70910551F483B78D7F83BF83B78B7F83BF89
S1130A8083B7816083BF08958830910551F483B79B
S1130A908E7F83BF83B78B7F83BF83B7826083BF1F
S1130AA008958034910551F483B78B7F83BF83B756
S1130AB0826083BF83B7816083BF0895811521E07D
S1130AC0920751F483B78E7F83BF83B78D7F83BF33
S1130AD083B7846083BF08958115944051F483B72C
S1130AE08D7F83BF83B7816083BF83B7846083BFF7
S1130AF0089583B78D7F83BF83B78B7F83BF83B70D
S1130B00816083BF08958F929F92AF92BF92CF92DC
S1130B10DF92EF92FF9213BE20E030E04AE754E404
S1130B200E948C066B017C012DEB37E346E05DE30C
S1130B300E948706882394F4A70196016DEB77E35E
S1130B4086E09DE30E9403062DEB37E346E059E37C
S1130B500E948C060E94FE0662BF3EC02DEB37E366
S1130B6046E05DE3C701B6010E948706811102C019
S1130B7012BE32C02DEB37E346E05DE3C701B60198
S1130B800E948C060E9470060E94FE064B015C01C6
S1130B9070936600609365002DEB37E346E059E3FC
S1130BA0C701B6010E948C066B017C01B40180E090
S1130BB090E00E942D079B01AC01C701B6010E9481
S1130BC08C069B01AC0160E070E08FE793E40E9427
S1130BD003060E94FE0662BF80E094E00E9437058F
S1130BE0FF90EF90DF90CF90BF90AF909F908F9049
S1130BF0089583B78E7F83BF83B78D7F83BF83B709
S1130C008B7F83BF08955058BB27AA270E941B06D9
S1130C100C94CE070E94C00738F00E94C70720F04A
S1130C2039F49F3F19F426F40C94BD070EF4E095B3
S1130C30E7FB0C948E07E92F0E94DF0758F3BA17DD
S1130C40620773078407950720F079F4A6F50C94DE
S1130C5019080EF4E0950B2EBA2FA02D0B01B90143
S1130C6090010C01CA01A0011124FF27591B99F01E
S1130C70593F50F4503E68F11A16F040A22F232F2A
S1130C80342F4427585FF3CF469537952795A7957A
S1130C90F0405395C9F77EF41F16BA0B620B730B21
S1130CA0840BBAF09150A1F0FF0FBB1F661F771F92
S1130CB0881FC2F70EC0BA0F621F731F841F48F447
S1130CC0879577956795B795F7959E3F08F0B0CFD0
S1130CD09395880F08F09927EE0F979587950895B7
S1130CE00E94010890F09F3748F4911116F40C9477
S1130CF01A0860E070E080E89FE3089526F01B1670
S1130D00611D711D811D0C9494070C94AF070E9402
S1130D106A0708F481E008950E94A0060C94CE07A7
S1130D200E94C70758F00E94C00740F029F45F3FB3
S1130D3029F00C948E0751110C941A080C94BD07D9
S1130D400E94DF0768F39923B1F3552391F3951BB0
S1130D50550BBB27AA2762177307840738F09F5FD8
S1130D605F4F220F331F441FAA1FA9F335D00E2E45
S1130D703AF0E0E832D091505040E695001CCAF7B2
S1130D802BD0FE2F29D0660F771F881FBB1F261775
S1130D9037074807AB07B0E809F0BB0B802DBF014C
S1130DA0FF2793585F4F3AF09E3F510578F00C941B
S1130DB08E070C941A085F3FE4F3983ED4F38695AB
S1130DC077956795B795F7959F5FC9F7880F911D3C
S1130DD09695879597F90895E1E0660F771F881F28
S1130DE0BB1F621773078407BA0720F0621B730BDB
S1130DF0840BBA0BEE1F88F7E09508950E94E7076D
S1130E0088F09F5798F0B92F9927B751B0F0E1F0C7
S1130E10660F771F881F991F1AF0BA95C9F714C077
S1130E20B13091F00E941908B1E008950C941908AA
S1130E30672F782F8827B85F39F0B93FCCF38695B0
S1130E4077956795B395D9F73EF49095809570950D
S1130E5061957F4F8F4F9F4F0895E89409C097FB8A
S1130E603EF490958095709561957F4F8F4F9F4F7D
S1130E709923A9F0F92F96E9BB279395F6958795C1
S1130E8077956795B795F111F8CFFAF4BB0F11F484
S1130E9060FF1BC06F5F7F4F8F4F9F4F16C088232B
S1130EA011F096E911C0772321F09EE8872F762F61
S1130EB005C0662371F096E8862F70E060E02AF0A2
S1130EC09A95660F771F881FDAF7880F969587958E
S1130ED097F90895990F0008550FAA0BE0E8FEEF63
S1130EE016161706E807F907C0F012161306E407EA
S1130EF0F50798F0621B730B840B950B39F40A26E3
S1130F0061F0232B242B252B21F408950A2609F4C0
S1130F10A140A6958FEF811D811D089597F99F67C4
S1130F2080E870E060E00895882371F4772321F06D
S1130F309850872B762F07C0662311F499270DC08C
S1130F409051862B70E060E02AF09A95660F771F27
S1130F50881FDAF7880F9695879597F908959F3F2C
S1130F6031F0915020F4879577956795B795880F60
S1130F70911D9695879597F908959FEF80EC0895B4
S1130F8000240A9416161706180609060895002464
S1130F900A9412161306140605060895092E0394DE
S1130FA0000C11F4882352F0BB0F40F4BF2B11F452
S1130FB060FF04C06F5F7F4F8F4F9F4F089557FDB1
S1130FC09058440F551F59F05F3F71F04795880FB3
S1130FD097FB991F61F09F3F79F08795089512164A
S1130FE013061406551FF2CF4695F1DF08C01616F6
S1130FF017061806991FF1CF8695710561050894A7
S113100008950E94E707A0F0BEE7B91788F4BB274C
S11310109F3860F41616B11D672F782F8827985FC4
S1131020F7CF869577956795B11D93959639C8F353
S11310300895E894BB2766277727CB0197F908958D
S1071040F894FFCF4E
S9030000FC
