:100000000C9432000C947D020C941F030C94440059
:100010000C9444000C9444000C9444000C94440050
:100020000C9444000C9444000C9444000C9436034B
:100030000C9444000C9444000C9444000C94440030
:100040000C9444000C9444000C9444000C94440020
:100050000C9444007700B600F90040018B01D201F6
:100060001502540211241FBECFE5D8E0DEBFCDBF7C
:1000700020E0A0E6B0E001C01D92A337B207E1F78F
:100080000E94B5030C9439080C94000064E482E0EB
:100090000E944D0341E064E482E00E946A0464E44B
:1000A00083E00E944D0341E064E483E00E946A041F
:1000B00061E484E00E94630361E484E00E949703AA
:1000C0000E941A050E941E050E942B050E943805F9
:1000D00080E00895E0916300F09164003197E8308A
:1000E000F10508F004C2E65DFF4F0C94330861E4AB
:1000F00080E00E9481030E940C0660916F00709165
:10010000700080917100909172000E94960520917C
:100110006000309161008091650090916600281721
:100120003907A9F7109261001092600061E484E041
:100130000E9497030E940C0660916F0070917000FE
:1001400080917100909172000E949605209160004C
:100150003091610080916500909166002817390701
:10016000A9F71092610010926000C1C161E480E0C3
:100170000E94810361E481E00E9481030E940C06D9
:1001800060916F0070917000809171009091720089
:100190000E94960520916000309161008091650079
:1001A0009091660028173907A9F710926100109204
:1001B000600061E484E00E9497030E940C06609155
:1001C0006700709168008091690090916A000E94B8
:1001D00096052091600030916100809165009091BA
:1001E000660028173907A9F7109261001092600085
:1001F0007EC161E480E00E94810361E481E00E94AD
:10020000810361E482E00E9481030E940C066091F8
:100210006F007091700080917100909172000E9447
:100220009605209160003091610080916500909169
:10023000660028173907A9F7109261001092600034
:1002400061E484E00E9497030E940C0660916700BD
:10025000709168008091690090916A000E949605F3
:10026000209160003091610080916500909166005E
:1002700028173907A9F7109261001092600037C162
:1002800061E480E00E94810361E481E00E948103D7
:1002900061E482E00E94810361E483E00E948103C3
:1002A0000E940C0660916F00709170008091710047
:1002B000909172000E94960520916000309161003B
:1002C000809165009091660028173907A9F7109270
:1002D00061001092600061E484E00E9497030E9434
:1002E0000C066091670070916800809169009091A0
:1002F0006A000E9496052091600030916100809113
:1003000065009091660028173907A9F710926100DF
:1003100010926000ECC061E481E00E94810361E41E
:1003200082E00E94810361E483E00E9481030E94D5
:100330000C0660916F007091700080917100909137
:1003400072000E94960520916000309161008091BA
:1003500065009091660028173907A9F7109261008F
:100360001092600061E484E00E9497030E940C06F2
:1003700060916700709168008091690090916A00B7
:100380000E94960520916000309161008091650087
:100390009091660028173907A9F710926100109212
:1003A0006000A5C061E482E00E94810361E483E013
:1003B0000E9481030E940C0660916F007091700092
:1003C00080917100909172000E94960520916000CA
:1003D000309161008091650090916600281739077F
:1003E000A9F7109261001092600061E484E00E941D
:1003F00097030E940C0660916700709168008091DD
:10040000690090916A000E949605209160003091E9
:100410006100809165009091660028173907A9F75F
:10042000109261001092600062C061E483E00E945B
:1004300081030E940C0660916F00709170008091A2
:100440007100909172000E94960520916000309199
:100450006100809165009091660028173907A9F71F
:10046000109261001092600061E484E00E949703A2
:100470000E940C066091670070916800809169008D
:1004800090916A000E949605209160003091610071
:10049000809165009091660028173907A9F710929E
:1004A00061001092600023C061E484E00E94970321
:1004B0000E940C066091670070916800809169004D
:1004C00090916A000E949605209160003091610031
:1004D000809165009091660028173907A9F710925E
:1004E000610010926000109264001092630080E03E
:1004F00008950E946A0080E008951F920F920FB63F
:100500000F9211248F939F93AF93BF9380916200BA
:100510008F5F80936200833009F43FC028F48130FC
:1005200051F0823009F180C0843009F44FC0853029
:1005300009F461C079C080E090E0A8ECB2E4809357
:100540006F0090937000A0937100B093720080E0F0
:1005500090E0A1E6B4E48093670090936800A093D4
:100560006900B0936A0062C080E090E0A8E4B3E460
:1005700080936F0090937000A0937100B09372000D
:1005800080E090E0A8E4B4E4809367009093680072
:10059000A0936900B0936A0049C080E090E0A6E9AA
:1005A000B3E480936F0090937000A0937100B093B8
:1005B000720080E090E0AFE2B4E480936700909333
:1005C0006800A0936900B0936A0030C080E090E0BA
:1005D000AAEFB3E480936F0090937000A093710032
:1005E000B09372008093670090936800A0936900B5
:1005F000B0936A001BC080E090E0A8E4B4E480936C
:100600006F0090937000A0937100B093720080E02F
:1006100090E0A8E4B3E48093670090936800A0930F
:100620006900B0936A0002C010926200BF91AF915E
:100630009F918F910F900FBE0F901F9018951F9252
:100640000F920FB60F9211248F939F9380916300A6
:1006500090916400019690936400809363009F9151
:100660008F910F900FBE0F901F9018951F920F92B1
:100670000FB60F9211248F939F93809160009091F9
:100680006100019690936100809360009F918F912B
:100690000F900FBE0F901F90189540E00E94BA0374
:1006A000811103C080E090E0089581E090E008951A
:1006B00041E00E94BA03882319F081E090E0089598
:1006C00080E090E00895EF92FF921F93CF93DF9325
:1006D000D82F162FE12CF12CC0E00AC0612F8C2FEF
:1006E0000E945803813019F4EE24E394F12CCF5F7B
:1006F000CD17A0F3C701DF91CF911F91FF90EF902D
:10070000089541E00E946A04843019F480E090E08A
:10071000089581E090E0089540E00E946A048430EA
:1007200019F480E090E0089581E090E00895EF9260
:10073000FF921F93CF93DF93D82F162FE12CF12C2C
:10074000C0E00AC0612F8C2F0E948C03813019F405
:10075000EE24E394F12CCF5FCD17A0F3C701DF9116
:10076000CF911F91FF90EF9008950E9446000E9444
:100770007902FDCF883008F09BC0623479F118F41B
:10078000613441F098C0633409F44CC0643409F416
:100790006CC091C0411110C04AB321E030E0B901F2
:1007A00002C0660F771F8A95E2F7CB0180958423FC
:1007B0008ABB80E090E00895413009F07FC04AB3E1
:1007C00021E030E0B90102C0660F771F8A95E2F799
:1007D000CB01842B8ABB80E090E00895411110C0CA
:1007E00047B321E030E0B90102C0660F771F8A9558
:1007F000E2F7CB018095842387BB80E090E00895E9
:10080000413009F05EC047B321E030E0B90102C0D9
:10081000660F771F8A95E2F7CB01842B87BB80E0B8
:1008200090E00895411110C044B321E030E0B901D7
:1008300002C0660F771F8A95E2F7CB01809584236B
:1008400084BB80E090E008954130F1F544B321E0AD
:1008500030E0B90102C0660F771F8A95E2F7CB013D
:10086000842B84BB80E090E00895411110C041B317
:1008700021E030E0B90102C0660F771F8A95E2F7E8
:10088000CB018095842381BB80E090E008954130C6
:10089000F1F441B321E030E0B90102C0660F771FE7
:1008A0008A95E2F7CB01842B81BB80E090E008952C
:1008B00083E090E0089582E090E0089581E090E088
:1008C000089581E090E0089581E090E0089581E04E
:1008D00090E00895883008F09BC0623479F118F4F4
:1008E000613441F098C0633409F44CC0643409F4B5
:1008F0006CC091C0411110C04BB321E030E0B90190
:1009000002C0660F771F8A95E2F7CB01809584239A
:100910008BBB84E090E00895413009F07FC04BB379
:1009200021E030E0B90102C0660F771F8A95E2F737
:10093000CB01842B8BBB84E090E00895411110C063
:1009400048B321E030E0B90102C0660F771F8A95F5
:10095000E2F7CB018095842388BB84E090E0089582
:10096000413009F05EC048B321E030E0B90102C077
:10097000660F771F8A95E2F7CB01842B88BB84E052
:1009800090E00895411110C045B321E030E0B90175
:1009900002C0660F771F8A95E2F7CB01809584230A
:1009A00085BB84E090E008954130F1F545B321E046
:1009B00030E0B90102C0660F771F8A95E2F7CB01DC
:1009C000842B85BB84E090E00895411110C042B3B0
:1009D00021E030E0B90102C0660F771F8A95E2F787
:1009E000CB018095842382BB84E090E00895413060
:1009F000F1F442B321E030E0B90102C0660F771F85
:100A00008A95E2F7CB01842B82BB84E090E00895C5
:100A100083E090E0089582E090E0089585E090E022
:100A2000089585E090E0089585E090E0089585E0E0
:100A300090E008958FB780688FBF089580B7846075
:100A400080BF8BB780648BBF85B78E7F85BF85B72E
:100A5000826085BF089580B7846080BF8BB780684F
:100A60008BBF85B78B7F85BF85B7886085BF0895AD
:100A70008FB780688FBF83B78F7B83BF83B7877F34
:100A800083BF83B7806883BF89B7816089BF0895BA
:100A90008034910519F130F48130910559F00897AF
:100AA00099F03AC0811521E0920711F18115944027
:100AB00049F132C083B78D7F83BF83B78B7F83BFFC
:100AC00083B7816083BF089583B78E7F83BF83B769
:100AD0008B7F83BF83B7826083BF089583B78B7F8B
:100AE00083BF83B7826083BF83B7816083BF08956C
:100AF00083B78E7F83BF83B78D7F83BF83B78460C7
:100B000083BF089583B78D7F83BF83B7816083BF21
:100B100083B7846083BF089583B78D7F83BF83B716
:100B20008B7F83BF83B7816083BF08958F929F922D
:100B3000AF92BF92CF92DF92EF92FF9213BE20E06E
:100B400030E04AE754E40E949F066B017C012DEBE4
:100B500037E346E05DE30E949A06882394F4A701F8
:100B600096016DEB77E386E09DE30E9416062DEB80
:100B700037E346E059E30E949F060E94110762BFD7
:100B80003EC02DEB37E346E05DE3C701B6010E94AE
:100B90009A06811102C012BE32C02DEB37E346E047
:100BA0005DE3C701B6010E949F060E9483060E9472
:100BB00011074B015C0170936600609365002DEB9B
:100BC00037E346E059E3C701B6010E949F066B0177
:100BD0007C01B40180E090E00E9440079B01AC01E1
:100BE000C701B6010E949F069B01AC0160E070E066
:100BF0008FE793E40E9416060E94110762BF80E00F
:100C000094E00E944805FF90EF90DF90CF90BF9056
:100C1000AF909F908F90089583B78E7F83BF83B7E7
:100C20008D7F83BF83B78B7F83BF08955058BB27C9
:100C3000AA270E942E060C94E1070E94D30738F0E1
:100C40000E94DA0720F039F49F3F19F426F40C943F
:100C5000D0070EF4E095E7FB0C94A107E92F0E9462
:100C6000F20758F3BA17620773078407950720F055
:100C700079F4A6F50C942C080EF4E0950B2EBA2FFF
:100C8000A02D0B01B90190010C01CA01A001112492
:100C9000FF27591B99F0593F50F4503E68F11A163E
:100CA000F040A22F232F342F4427585FF3CF4695CF
:100CB00037952795A795F0405395C9F77EF41F16F1
:100CC000BA0B620B730B840BBAF09150A1F0FF0FBB
:100CD000BB1F661F771F881FC2F70EC0BA0F621FA7
:100CE000731F841F48F4879577956795B795F79597
:100CF0009E3F08F0B0CF9395880F08F09927EE0F2C
:100D00009795879508950E94140890F09F3748F4AE
:100D1000911116F40C942D0860E070E080E89FE3D8
:100D2000089526F01B16611D711D811D0C94A707E7
:100D30000C94C2070E947D0708F481E008950E9488
:100D4000B3060C94E1070E94DA0758F00E94D3071B
:100D500040F029F45F3F29F00C94A10751110C9445
:100D60002D080C94D0070E94F20768F39923B1F381
:100D7000552391F3951B550BBB27AA2762177307C1
:100D8000840738F09F5F5F4F220F331F441FAA1F55
:100D9000A9F335D00E2E3AF0E0E832D09150504011
:100DA000E695001CCAF72BD0FE2F29D0660F771FBF
:100DB000881FBB1F261737074807AB07B0E809F0A5
:100DC000BB0B802DBF01FF2793585F4F3AF09E3F2A
:100DD000510578F00C94A1070C942D085F3FE4F3C3
:100DE000983ED4F3869577956795B795F7959F5F6D
:100DF000C9F7880F911D9695879597F90895E1E0B9
:100E0000660F771F881FBB1F621773078407BA0717
:100E100020F0621B730B840BBA0BEE1F88F7E09572
:100E200008950E94FA0788F09F5798F0B92F9927E4
:100E3000B751B0F0E1F0660F771F881F991F1AF0C5
:100E4000BA95C9F714C0B13091F00E942C08B1E0F6
:100E500008950C942C08672F782F8827B85F39F0F5
:100E6000B93FCCF3869577956795B395D9F73EF45E
:100E700090958095709561957F4F8F4F9F4F089506
:100E8000E89409C097FB3EF4909580957095619524
:100E90007F4F8F4F9F4F9923A9F0F92F96E9BB27DA
:100EA0009395F695879577956795B795F111F8CF56
:100EB000FAF4BB0F11F460FF1BC06F5F7F4F8F4FC1
:100EC0009F4F16C0882311F096E911C0772321F0B7
:100ED0009EE8872F762F05C0662371F096E8862F4F
:100EE00070E060E02AF09A95660F771F881FDAF7A6
:100EF000880F9695879597F90895990F0008550FD3
:100F0000AA0BE0E8FEEF16161706E807F907C0F08F
:100F100012161306E407F50798F0621B730B840B97
:100F2000950B39F40A2661F0232B242B252B21F471
:100F300008950A2609F4A140A6958FEF811D811D11
:100F4000089597F99F6780E870E060E0089588232E
:100F500071F4772321F09850872B762F07C06623F2
:100F600011F499270DC09051862B70E060E02AF0B3
:100F70009A95660F771F881FDAF7880F96958795E1
:100F800097F908959F3F31F0915020F48795779518
:100F90006795B795880F911D9695879597F9089550
:100FA0009FEF80EC089500240A9416161706180681
:100FB0000906089500240A9412161306140605065D
:100FC0000895092E0394000C11F4882352F0BB0FEE
:100FD00040F4BF2B11F460FF04C06F5F7F4F8F4F51
:100FE0009F4F089557FD9058440F551F59F05F3F8C
:100FF00071F04795880F97FB991F61F09F3F79F03B
:1010000087950895121613061406551FF2CF4695BC
:10101000F1DF08C0161617061806991FF1CF86953E
:1010200071056105089408950E94FA07A0F0BEE7D3
:10103000B91788F4BB279F3860F41616B11D672FC7
:10104000782F8827985FF7CF869577956795B11D9C
:1010500093959639C8F30895E894BB2766277727B8
:10106000CB0197F90895EE0FFF1F0590F491E02D45
:061070000994F894FFCF83
:00000001FF
