:100000000C9432000C9444000C9444000C94440072
:100010000C9444000C9444000C9444000C94440050
:100020000C9444000C9444000C9444000C94440040
:100030000C9444000C9444000C9444000C94440030
:100040000C9444000C9444000C9444000C94440020
:100050000C9444006A006F00740079007E008300F5
:1000600088008D0011241FBECFE5D8E0DEBFCDBFD4
:1000700020E0A0E6B0E001C01D92A136B207E1F792
:100080000E940F010C94AC020C94000061E484E027
:100090000E94D30064E480E00E94940061E484E064
:1000A0000E94FA00089564E480E00E949A008111A1
:1000B0003AC080916000E1E0E80FE09360008E2F8D
:1000C00090E0FC013197E830F10568F5E65DFF4FFF
:1000D0000C94A60261E480E00E94E800089561E4C7
:1000E00081E00E94E800089561E482E00E94E80057
:1000F000089561E483E00E94E800089561E480E0EF
:100100000E94F100089561E481E00E94F1000895E9
:1001100061E482E00E94F100089561E483E00E94BE
:10012000F10010926000089540E00E9414018111D6
:1001300081E008950F931F93CF93DF931F92CDB764
:10014000DEB7182F062F1982AE014F5F5F4F0E9456
:10015000580289818130C1F483EE97E50197F1F768
:1001600000C00000AE014F5F5F4F602F812F0E94E3
:1001700058028981813051F483EE97E50197F1F7B8
:1001800000C0000080E003C081E001C081E00F906A
:10019000DF91CF911F910F91089541E00E941401CA
:1001A000811181E008951F93CF93DF93D82F162FED
:1001B000C0E007C0612F8C2F0E94CD00813021F05C
:1001C000CF5FCD17B8F380E0DF91CF911F910895F5
:1001D00041E00E94B601873011F480E0089581E08B
:1001E000089540E00E94B601873011F480E0089540
:1001F00081E008951F93CF93DF93D82F162FC0E08F
:1002000007C0612F8C2F0E94F100813021F0CF5F59
:10021000CD17B8F380E0DF91CF911F9108950E9430
:1002200046000E945300FDCF883008F093C062342E
:1002300069F118F4613441F08FC0633409F448C0A7
:10024000643409F466C088C041110FC04AB321E08C
:1002500030E0B90102C0660F771F8A95E2F7CB0143
:10026000809584238ABB80E00895413009F076C0F0
:100270004AB321E030E0B90102C0660F771F8A95CA
:10028000E2F7CB01842B8ABB80E0089541110FC0B7
:1002900047B321E030E0B90102C0660F771F8A95AD
:1002A000E2F7CB018095842387BB80E0089541303D
:1002B00009F056C047B321E030E0B90102C0660F33
:1002C000771F8A95E2F7CB01842B87BB80E00895E6
:1002D00041110FC044B321E030E0B90102C0660F04
:1002E000771F8A95E2F7CB018095842384BB80E059
:1002F00008954130B9F544B321E030E0B90102C0BE
:10030000660F771F8A95E2F7CB01842B84BB80E0D0
:10031000089541110FC041B321E030E0B90102C09E
:10032000660F771F8A95E2F7CB018095842381BB06
:1003300080E008954130C1F441B321E030E0B901DB
:1003400002C0660F771F8A95E2F7CB01842B81BB31
:1003500080E0089583E0089582E0089581E00895A3
:1003600081E0089581E0089581E00895883008F0E3
:1003700093C0623469F118F4613441F08FC0633482
:1003800009F448C0643409F466C088C041110FC044
:100390004BB321E030E0B90102C0660F771F8A95A8
:1003A000E2F7CB01809584238BBB84E00895413034
:1003B00009F076C04BB321E030E0B90102C0660F0E
:1003C000771F8A95E2F7CB01842B8BBB84E00895DD
:1003D00041110FC048B321E030E0B90102C0660FFF
:1003E000771F8A95E2F7CB018095842388BB84E050
:1003F0000895413009F056C048B321E030E0B9011A
:1004000002C0660F771F8A95E2F7CB01842B88BB69
:1004100084E0089541110FC045B321E030E0B901F7
:1004200002C0660F771F8A95E2F7CB01809584237F
:1004300085BB84E008954130B9F545B321E030E053
:10044000B90102C0660F771F8A95E2F7CB01842BB2
:1004500085BB84E0089541110FC042B321E030E034
:10046000B90102C0660F771F8A95E2F7CB0180952C
:10047000842382BB84E008954130C1F442B321E07B
:1004800030E0B90102C0660F771F8A95E2F7CB0111
:10049000842B82BB84E0089583E0089582E0089570
:1004A00085E0089585E0089585E0089585E0089544
:1004B000883008F047C06234C1F018F4613431F07C
:1004C00043C0633409F1643471F13EC069B321E083
:1004D00030E0F90102C0EE0FFF1F8A95E2F7CF016D
:1004E0008623FA01808387E0089566B321E030E037
:1004F000F90102C0EE0FFF1F8A95E2F7CF018623B4
:10050000FA01808387E0089563B321E030E0F901C8
:1005100002C0EE0FFF1F8A95E2F7CF018623FA0192
:10052000808387E0089560B321E030E0F90102C0E4
:10053000EE0FFF1F8A95E2F7CF018623FA01808331
:1005400087E0089583E0089582E00895EE0FFF1F8D
:0C0550000590F491E02D0994F894FFCF81
:00000001FF
