:100000000C9432000C9493000C9444000C94440023
:100010000C9444000C9444000C9444000C94440050
:100020000C9444000C9444000C9444000C94440040
:100030000C9444000C9444000C9444000C94440030
:100040000C9444000C9444000C9444000C94440020
:100050000C94440069006E00730078007D008200FB
:1000600087008C0011241FBECFE5D8E0DEBFCDBFD6
:1000700020E0A0E6B0E001C01D92A136B207E1F792
:100080000E94F0000C9450020C94000064E482E0A2
:100090000E94A40041E064E482E00E94970161E4D0
:1000A00084E00E94B00061E484E00E94D9000E94D4
:1000B00039020E943D020895E09160008E2F90E089
:1000C000FC013197E830F105B8F7E65DFF4F0C947D
:1000D0004A0261E480E00E94C700EECF61E481E063
:1000E0000E94C700E9CF61E482E00E94C700E4CF2C
:1000F00061E483E00E94C700DFCF61E480E00E94FA
:10010000D000DACF61E481E00E94D000D5CF61E475
:1001100082E00E94D000D0CF61E483E00E94D00052
:1001200010926000C9CF1F920F920FB60F92112448
:100130008F93809160008F5F809360008F910F900C
:100140000FBE0F901F90189540E00E94F50081119E
:1001500081E0089541E00E94F500811181E0089559
:100160001F93CF93DF93D82F162FC0E007C0612FC6
:100170008C2F0E94AA00813029F0CF5FCD17B8F3F1
:1001800080E001C081E0DF91CF911F91089541E0AF
:100190000E949701873011F480E0089581E008956E
:1001A00040E00E949701873011F480E0089581E0DB
:1001B00008951F93CF93DF93D82F162FC0E007C069
:1001C000612F8C2F0E94D000813029F0CF5FCD1796
:1001D000B8F380E001C081E0DF91CF911F910895D5
:1001E0000E9446000E945C00FDCF883008F093C05A
:1001F000623469F118F4613441F08FC0633409F45A
:1002000048C0643409F466C088C041110FC04AB3C5
:1002100021E030E0B90102C0660F771F8A95E2F74E
:10022000CB01809584238ABB80E00895413009F09A
:1002300076C04AB321E030E0B90102C0660F771FF3
:100240008A95E2F7CB01842B8ABB80E008954111A7
:100250000FC047B321E030E0B90102C0660F771F3D
:100260008A95E2F7CB018095842387BB80E00895CF
:10027000413009F056C047B321E030E0B90102C077
:10028000660F771F8A95E2F7CB01842B87BB80E04E
:10029000089541110FC044B321E030E0B90102C01C
:1002A000660F771F8A95E2F7CB018095842384BB84
:1002B00080E008954130B9F544B321E030E0B90160
:1002C00002C0660F771F8A95E2F7CB01842B84BBAF
:1002D00080E0089541110FC041B321E030E0B90141
:1002E00002C0660F771F8A95E2F7CB0180958423C1
:1002F00081BB80E008954130C1F441B321E030E09A
:10030000B90102C0660F771F8A95E2F7CB01842BF3
:1003100081BB80E0089583E0089582E0089581E044
:10032000089581E0089581E0089581E0089588307E
:1003300008F093C0623469F118F4613441F08FC061
:10034000633409F448C0643409F466C088C04111BC
:100350000FC04BB321E030E0B90102C0660F771F38
:100360008A95E2F7CB01809584238BBB84E00895C6
:10037000413009F076C04BB321E030E0B90102C052
:10038000660F771F8A95E2F7CB01842B8BBB84E045
:10039000089541110FC048B321E030E0B90102C017
:1003A000660F771F8A95E2F7CB018095842388BB7F
:1003B00084E00895413009F056C048B321E030E0B0
:1003C000B90102C0660F771F8A95E2F7CB01842B33
:1003D00088BB84E0089541110FC045B321E030E0AF
:1003E000B90102C0660F771F8A95E2F7CB018095AD
:1003F000842385BB84E008954130B9F545B321E0FD
:1004000030E0B90102C0660F771F8A95E2F7CB0191
:10041000842B85BB84E0089541110FC042B321E0D5
:1004200030E0B90102C0660F771F8A95E2F7CB0171
:100430008095842382BB84E008954130C1F442B3A7
:1004400021E030E0B90102C0660F771F8A95E2F71C
:10045000CB01842B82BB84E0089583E0089582E081
:10046000089585E0089585E0089585E0089585E084
:1004700008958FB780688FBF089580B7846080BF6C
:100480008BB780648BBF85B78E7F85BF85B7826051
:1004900085BF0895EE0FFF1F0590F491E02D09949C
:0404A000F894FFCFFE
:00000001FF
